{"abi":[{"type":"constructor","inputs":[{"name":"_owner","type":"address","internalType":"address"},{"name":"_rewardsDistribution","type":"address","internalType":"address"},{"name":"_rewardsToken","type":"address","internalType":"address"},{"name":"_stakingToken","type":"address","internalType":"address"}],"stateMutability":"nonpayable"},{"type":"function","name":"acceptOwnership","inputs":[],"outputs":[],"stateMutability":"nonpayable"},{"type":"function","name":"balanceOf","inputs":[{"name":"account","type":"address","internalType":"address"}],"outputs":[{"name":"","type":"uint256","internalType":"uint256"}],"stateMutability":"view"},{"type":"function","name":"earned","inputs":[{"name":"account","type":"address","internalType":"address"}],"outputs":[{"name":"","type":"uint256","internalType":"uint256"}],"stateMutability":"view"},{"type":"function","name":"exit","inputs":[],"outputs":[],"stateMutability":"nonpayable"},{"type":"function","name":"getReward","inputs":[],"outputs":[],"stateMutability":"nonpayable"},{"type":"function","name":"getRewardForDuration","inputs":[],"outputs":[{"name":"","type":"uint256","internalType":"uint256"}],"stateMutability":"view"},{"type":"function","name":"lastPauseTime","inputs":[],"outputs":[{"name":"","type":"uint256","internalType":"uint256"}],"stateMutability":"view"},{"type":"function","name":"lastTimeRewardApplicable","inputs":[],"outputs":[{"name":"","type":"uint256","internalType":"uint256"}],"stateMutability":"view"},{"type":"function","name":"lastUpdateTime","inputs":[],"outputs":[{"name":"","type":"uint256","internalType":"uint256"}],"stateMutability":"view"},{"type":"function","name":"nominateNewOwner","inputs":[{"name":"_owner","type":"address","internalType":"address"}],"outputs":[],"stateMutability":"nonpayable"},{"type":"function","name":"nominatedOwner","inputs":[],"outputs":[{"name":"","type":"address","internalType":"address"}],"stateMutability":"view"},{"type":"function","name":"notifyRewardAmount","inputs":[{"name":"reward","type":"uint256","internalType":"uint256"}],"outputs":[],"stateMutability":"nonpayable"},{"type":"function","name":"owner","inputs":[],"outputs":[{"name":"","type":"address","internalType":"address"}],"stateMutability":"view"},{"type":"function","name":"paused","inputs":[],"outputs":[{"name":"","type":"bool","internalType":"bool"}],"stateMutability":"view"},{"type":"function","name":"periodFinish","inputs":[],"outputs":[{"name":"","type":"uint256","internalType":"uint256"}],"stateMutability":"view"},{"type":"function","name":"recoverERC20","inputs":[{"name":"tokenAddress","type":"address","internalType":"address"},{"name":"tokenAmount","type":"uint256","internalType":"uint256"}],"outputs":[],"stateMutability":"nonpayable"},{"type":"function","name":"rewardPerToken","inputs":[],"outputs":[{"name":"","type":"uint256","internalType":"uint256"}],"stateMutability":"view"},{"type":"function","name":"rewardPerTokenStored","inputs":[],"outputs":[{"name":"","type":"uint256","internalType":"uint256"}],"stateMutability":"view"},{"type":"function","name":"rewardRate","inputs":[],"outputs":[{"name":"","type":"uint256","internalType":"uint256"}],"stateMutability":"view"},{"type":"function","name":"rewards","inputs":[{"name":"","type":"address","internalType":"address"}],"outputs":[{"name":"","type":"uint256","internalType":"uint256"}],"stateMutability":"view"},{"type":"function","name":"rewardsDistribution","inputs":[],"outputs":[{"name":"","type":"address","internalType":"address"}],"stateMutability":"view"},{"type":"function","name":"rewardsDuration","inputs":[],"outputs":[{"name":"","type":"uint256","internalType":"uint256"}],"stateMutability":"view"},{"type":"function","name":"rewardsToken","inputs":[],"outputs":[{"name":"","type":"address","internalType":"contract IERC20"}],"stateMutability":"view"},{"type":"function","name":"setPaused","inputs":[{"name":"_paused","type":"bool","internalType":"bool"}],"outputs":[],"stateMutability":"nonpayable"},{"type":"function","name":"setRewardsDistribution","inputs":[{"name":"_rewardsDistribution","type":"address","internalType":"address"}],"outputs":[],"stateMutability":"nonpayable"},{"type":"function","name":"setRewardsDuration","inputs":[{"name":"_rewardsDuration","type":"uint256","internalType":"uint256"}],"outputs":[],"stateMutability":"nonpayable"},{"type":"function","name":"stake","inputs":[{"name":"amount","type":"uint256","internalType":"uint256"}],"outputs":[],"stateMutability":"nonpayable"},{"type":"function","name":"stakingToken","inputs":[],"outputs":[{"name":"","type":"address","internalType":"contract IERC20"}],"stateMutability":"view"},{"type":"function","name":"totalSupply","inputs":[],"outputs":[{"name":"","type":"uint256","internalType":"uint256"}],"stateMutability":"view"},{"type":"function","name":"userRewardPerTokenPaid","inputs":[{"name":"","type":"address","internalType":"address"}],"outputs":[{"name":"","type":"uint256","internalType":"uint256"}],"stateMutability":"view"},{"type":"function","name":"withdraw","inputs":[{"name":"amount","type":"uint256","internalType":"uint256"}],"outputs":[],"stateMutability":"nonpayable"},{"type":"event","name":"OwnerChanged","inputs":[{"name":"oldOwner","type":"address","indexed":false,"internalType":"address"},{"name":"newOwner","type":"address","indexed":false,"internalType":"address"}],"anonymous":false},{"type":"event","name":"OwnerNominated","inputs":[{"name":"newOwner","type":"address","indexed":false,"internalType":"address"}],"anonymous":false},{"type":"event","name":"PauseChanged","inputs":[{"name":"isPaused","type":"bool","indexed":false,"internalType":"bool"}],"anonymous":false},{"type":"event","name":"Recovered","inputs":[{"name":"token","type":"address","indexed":false,"internalType":"address"},{"name":"amount","type":"uint256","indexed":false,"internalType":"uint256"}],"anonymous":false},{"type":"event","name":"RewardAdded","inputs":[{"name":"reward","type":"uint256","indexed":false,"internalType":"uint256"}],"anonymous":false},{"type":"event","name":"RewardPaid","inputs":[{"name":"user","type":"address","indexed":true,"internalType":"address"},{"name":"reward","type":"uint256","indexed":false,"internalType":"uint256"}],"anonymous":false},{"type":"event","name":"RewardsDurationUpdated","inputs":[{"name":"newDuration","type":"uint256","indexed":false,"internalType":"uint256"}],"anonymous":false},{"type":"event","name":"Staked","inputs":[{"name":"user","type":"address","indexed":true,"internalType":"address"},{"name":"amount","type":"uint256","indexed":false,"internalType":"uint256"}],"anonymous":false},{"type":"event","name":"Withdrawn","inputs":[{"name":"user","type":"address","indexed":true,"internalType":"address"},{"name":"amount","type":"uint256","indexed":false,"internalType":"uint256"}],"anonymous":false}],"bytecode":{"object":"0x60806040525f6007555f60085562093a806009553480156200001f575f80fd5b5060405162002e8f38038062002e8f8339818101604052810190620000459190620002fa565b835f73ffffffffffffffffffffffffffffffffffffffff168173ffffffffffffffffffffffffffffffffffffffff1603620000b7576040517f08c379a0000000000000000000000000000000000000000000000000000000008152600401620000ae90620003c7565b60405180910390fd5b805f806101000a81548173ffffffffffffffffffffffffffffffffffffffff021916908373ffffffffffffffffffffffffffffffffffffffff1602179055507fb532073b38c83145e3e5135377a08bf9aab55bc0fd7c1179cd4fb995d2a5159c5f8260405162000129929190620003f8565b60405180910390a15060016003819055505f73ffffffffffffffffffffffffffffffffffffffff165f8054906101000a900473ffffffffffffffffffffffffffffffffffffffff1673ffffffffffffffffffffffffffffffffffffffff1603620001ca576040517f08c379a0000000000000000000000000000000000000000000000000000000008152600401620001c19062000471565b60405180910390fd5b81600560016101000a81548173ffffffffffffffffffffffffffffffffffffffff021916908373ffffffffffffffffffffffffffffffffffffffff1602179055508060065f6101000a81548173ffffffffffffffffffffffffffffffffffffffff021916908373ffffffffffffffffffffffffffffffffffffffff1602179055508260025f6101000a81548173ffffffffffffffffffffffffffffffffffffffff021916908373ffffffffffffffffffffffffffffffffffffffff1602179055505050505062000491565b5f80fd5b5f73ffffffffffffffffffffffffffffffffffffffff82169050919050565b5f620002c48262000299565b9050919050565b620002d681620002b8565b8114620002e1575f80fd5b50565b5f81519050620002f481620002cb565b92915050565b5f805f806080858703121562000315576200031462000295565b5b5f6200032487828801620002e4565b94505060206200033787828801620002e4565b93505060406200034a87828801620002e4565b92505060606200035d87828801620002e4565b91505092959194509250565b5f82825260208201905092915050565b7f4f776e657220616464726573732063616e6e6f742062652030000000000000005f82015250565b5f620003af60198362000369565b9150620003bc8262000379565b602082019050919050565b5f6020820190508181035f830152620003e081620003a1565b9050919050565b620003f281620002b8565b82525050565b5f6040820190506200040d5f830185620003e7565b6200041c6020830184620003e7565b9392505050565b7f4f776e6572206d757374206265207365740000000000000000000000000000005f82015250565b5f6200045960118362000369565b9150620004668262000423565b602082019050919050565b5f6020820190508181035f8301526200048a816200044b565b9050919050565b6129f0806200049f5f395ff3fe608060405234801561000f575f80fd5b50600436106101e2575f3560e01c806372f702f31161010d578063a694fc3a116100a0578063d1af0c7d1161006f578063d1af0c7d14610520578063df136d651461053e578063e9fad8ee1461055c578063ebe2b12b14610566576101e2565b8063a694fc3a146104ac578063c8f33c91146104c8578063cc1a378f146104e6578063cd3daf9d14610502576101e2565b80638980f11f116100dc5780638980f11f146104245780638b876347146104405780638da5cb5b1461047057806391b4ded91461048e576101e2565b806372f702f3146103c057806379ba5097146103de5780637b0a47ee146103e857806380faa57d14610406576101e2565b80632e1a7d4d116101855780633fc6df6e116101545780633fc6df6e1461033657806353a47bb7146103545780635c975abb1461037257806370a0823114610390576101e2565b80632e1a7d4d146102d6578063386a9525146102f25780633c6b16ab146103105780633d18b9121461032c576101e2565b806316c38b3c116101c157806316c38b3c1461026257806318160ddd1461027e578063197621431461029c5780631c1f78eb146102b8576101e2565b80628cc262146101e65780630700037d146102165780631627540c14610246575b5f80fd5b61020060048036038101906101fb9190611e61565b610584565b60405161020d9190611ea4565b60405180910390f35b610230600480360381019061022b9190611e61565b61067f565b60405161023d9190611ea4565b60405180910390f35b610260600480360381019061025b9190611e61565b610694565b005b61027c60048036038101906102779190611ef2565b61079b565b005b6102866108c0565b6040516102939190611ea4565b60405180910390f35b6102b660048036038101906102b19190611e61565b6108c9565b005b6102c0610999565b6040516102cd9190611ea4565b60405180910390f35b6102f060048036038101906102eb9190611f47565b6109af565b005b6102fa610c2e565b6040516103079190611ea4565b60405180910390f35b61032a60048036038101906103259190611f47565b610c34565b005b610334610f4e565b005b61033e6111ad565b60405161034b9190611f81565b60405180910390f35b61035c6111d2565b6040516103699190611f81565b60405180910390f35b61037a6111f7565b6040516103879190611fa9565b60405180910390f35b6103aa60048036038101906103a59190611e61565b611209565b6040516103b79190611ea4565b60405180910390f35b6103c861124f565b6040516103d5919061201d565b60405180910390f35b6103e6611274565b005b6103f061141e565b6040516103fd9190611ea4565b60405180910390f35b61040e611424565b60405161041b9190611ea4565b60405180910390f35b61043e60048036038101906104399190612036565b61143d565b005b61045a60048036038101906104559190611e61565b6115e0565b6040516104679190611ea4565b60405180910390f35b6104786115f5565b6040516104859190611f81565b60405180910390f35b610496611618565b6040516104a39190611ea4565b60405180910390f35b6104c660048036038101906104c19190611f47565b61161e565b005b6104d06118ee565b6040516104dd9190611ea4565b60405180910390f35b61050060048036038101906104fb9190611f47565b6118f4565b005b61050a611a08565b6040516105179190611ea4565b60405180910390f35b610528611a71565b604051610535919061201d565b60405180910390f35b610546611a97565b6040516105539190611ea4565b60405180910390f35b610564611a9d565b005b61056e611aed565b60405161057b9190611ea4565b60405180910390f35b5f600d5f8373ffffffffffffffffffffffffffffffffffffffff1673ffffffffffffffffffffffffffffffffffffffff1681526020019081526020015f2054670de0b6b3a7640000600c5f8573ffffffffffffffffffffffffffffffffffffffff1673ffffffffffffffffffffffffffffffffffffffff1681526020019081526020015f2054610612611a08565b61061c91906120a1565b600f5f8673ffffffffffffffffffffffffffffffffffffffff1673ffffffffffffffffffffffffffffffffffffffff1681526020019081526020015f205461066491906120d4565b61066e9190612142565b6106789190612172565b9050919050565b600d602052805f5260405f205f915090505481565b5f8054906101000a900473ffffffffffffffffffffffffffffffffffffffff1673ffffffffffffffffffffffffffffffffffffffff163373ffffffffffffffffffffffffffffffffffffffff1614610721576040517f08c379a000000000000000000000000000000000000000000000000000000000815260040161071890612225565b60405180910390fd5b8060015f6101000a81548173ffffffffffffffffffffffffffffffffffffffff021916908373ffffffffffffffffffffffffffffffffffffffff1602179055507f906a1c6bd7e3091ea86693dd029a831c19049ce77f1dce2ce0bab1cacbabce22816040516107909190611f81565b60405180910390a150565b5f8054906101000a900473ffffffffffffffffffffffffffffffffffffffff1673ffffffffffffffffffffffffffffffffffffffff163373ffffffffffffffffffffffffffffffffffffffff1614610828576040517f08c379a000000000000000000000000000000000000000000000000000000000815260040161081f90612225565b60405180910390fd5b60055f9054906101000a900460ff16151581151503156108bd578060055f6101000a81548160ff02191690831515021790555060055f9054906101000a900460ff161561087757426004819055505b7f8fb6c181ee25a520cf3dd6565006ef91229fcfe5a989566c2a3b8c115570cec560055f9054906101000a900460ff166040516108b49190611fa9565b60405180910390a15b50565b5f600e54905090565b5f8054906101000a900473ffffffffffffffffffffffffffffffffffffffff1673ffffffffffffffffffffffffffffffffffffffff163373ffffffffffffffffffffffffffffffffffffffff1614610956576040517f08c379a000000000000000000000000000000000000000000000000000000000815260040161094d90612225565b60405180910390fd5b8060025f6101000a81548173ffffffffffffffffffffffffffffffffffffffff021916908373ffffffffffffffffffffffffffffffffffffffff16021790555050565b5f6009546008546109aa91906120d4565b905090565b6002600354036109f4576040517f08c379a00000000000000000000000000000000000000000000000000000000081526004016109eb9061228d565b60405180910390fd5b600260038190555033610a05611a08565b600b81905550610a13611424565b600a819055505f73ffffffffffffffffffffffffffffffffffffffff168173ffffffffffffffffffffffffffffffffffffffff1614610adb57610a5581610584565b600d5f8373ffffffffffffffffffffffffffffffffffffffff1673ffffffffffffffffffffffffffffffffffffffff1681526020019081526020015f2081905550600b54600c5f8373ffffffffffffffffffffffffffffffffffffffff1673ffffffffffffffffffffffffffffffffffffffff1681526020019081526020015f20819055505b5f8211610b1d576040517f08c379a0000000000000000000000000000000000000000000000000000000008152600401610b14906122f5565b60405180910390fd5b81600e5f828254610b2e91906120a1565b9250508190555081600f5f3373ffffffffffffffffffffffffffffffffffffffff1673ffffffffffffffffffffffffffffffffffffffff1681526020019081526020015f205f828254610b8191906120a1565b92505081905550610bd4338360065f9054906101000a900473ffffffffffffffffffffffffffffffffffffffff1673ffffffffffffffffffffffffffffffffffffffff16611af39092919063ffffffff16565b3373ffffffffffffffffffffffffffffffffffffffff167f7084f5476618d8e60b11ef0d7d3f06914655adb8793e28ff7f018d4c76d505d583604051610c1a9190611ea4565b60405180910390a250600160038190555050565b60095481565b60025f9054906101000a900473ffffffffffffffffffffffffffffffffffffffff1673ffffffffffffffffffffffffffffffffffffffff163373ffffffffffffffffffffffffffffffffffffffff1614610cc3576040517f08c379a0000000000000000000000000000000000000000000000000000000008152600401610cba90612383565b60405180910390fd5b5f610ccc611a08565b600b81905550610cda611424565b600a819055505f73ffffffffffffffffffffffffffffffffffffffff168173ffffffffffffffffffffffffffffffffffffffff1614610da257610d1c81610584565b600d5f8373ffffffffffffffffffffffffffffffffffffffff1673ffffffffffffffffffffffffffffffffffffffff1681526020019081526020015f2081905550600b54600c5f8373ffffffffffffffffffffffffffffffffffffffff1673ffffffffffffffffffffffffffffffffffffffff1681526020019081526020015f20819055505b6007544210610dc45760095482610db99190612142565b600881905550610e08565b5f42600754610dd391906120a1565b90505f60085482610de491906120d4565b90506009548185610df59190612172565b610dff9190612142565b60088190555050505b5f600560019054906101000a900473ffffffffffffffffffffffffffffffffffffffff1673ffffffffffffffffffffffffffffffffffffffff166370a08231306040518263ffffffff1660e01b8152600401610e649190611f81565b602060405180830381865afa158015610e7f573d5f803e3d5ffd5b505050506040513d601f19601f82011682018060405250810190610ea391906123b5565b905060095481610eb39190612142565b6008541115610ef7576040517f08c379a0000000000000000000000000000000000000000000000000000000008152600401610eee9061242a565b60405180910390fd5b42600a8190555060095442610f0c9190612172565b6007819055507fde88a922e0d3b88b24e9623efeb464919c6bf9f66857a65e2bfcf2ce87a9433d83604051610f419190611ea4565b60405180910390a1505050565b600260035403610f93576040517f08c379a0000000000000000000000000000000000000000000000000000000008152600401610f8a9061228d565b60405180910390fd5b600260038190555033610fa4611a08565b600b81905550610fb2611424565b600a819055505f73ffffffffffffffffffffffffffffffffffffffff168173ffffffffffffffffffffffffffffffffffffffff161461107a57610ff481610584565b600d5f8373ffffffffffffffffffffffffffffffffffffffff1673ffffffffffffffffffffffffffffffffffffffff1681526020019081526020015f2081905550600b54600c5f8373ffffffffffffffffffffffffffffffffffffffff1673ffffffffffffffffffffffffffffffffffffffff1681526020019081526020015f20819055505b5f600d5f3373ffffffffffffffffffffffffffffffffffffffff1673ffffffffffffffffffffffffffffffffffffffff1681526020019081526020015f205490505f8111156111a1575f600d5f3373ffffffffffffffffffffffffffffffffffffffff1673ffffffffffffffffffffffffffffffffffffffff1681526020019081526020015f20819055506111523382600560019054906101000a900473ffffffffffffffffffffffffffffffffffffffff1673ffffffffffffffffffffffffffffffffffffffff16611af39092919063ffffffff16565b3373ffffffffffffffffffffffffffffffffffffffff167fe2403640ba68fed3a2f88b7557551d1993f84b99bb10ff833f0cf8db0c5e0486826040516111989190611ea4565b60405180910390a25b50506001600381905550565b60025f9054906101000a900473ffffffffffffffffffffffffffffffffffffffff1681565b60015f9054906101000a900473ffffffffffffffffffffffffffffffffffffffff1681565b60055f9054906101000a900460ff1681565b5f600f5f8373ffffffffffffffffffffffffffffffffffffffff1673ffffffffffffffffffffffffffffffffffffffff1681526020019081526020015f20549050919050565b60065f9054906101000a900473ffffffffffffffffffffffffffffffffffffffff1681565b60015f9054906101000a900473ffffffffffffffffffffffffffffffffffffffff1673ffffffffffffffffffffffffffffffffffffffff163373ffffffffffffffffffffffffffffffffffffffff1614611303576040517f08c379a00000000000000000000000000000000000000000000000000000000081526004016112fa906124b8565b60405180910390fd5b7fb532073b38c83145e3e5135377a08bf9aab55bc0fd7c1179cd4fb995d2a5159c5f8054906101000a900473ffffffffffffffffffffffffffffffffffffffff1660015f9054906101000a900473ffffffffffffffffffffffffffffffffffffffff166040516113749291906124d6565b60405180910390a160015f9054906101000a900473ffffffffffffffffffffffffffffffffffffffff165f806101000a81548173ffffffffffffffffffffffffffffffffffffffff021916908373ffffffffffffffffffffffffffffffffffffffff1602179055505f60015f6101000a81548173ffffffffffffffffffffffffffffffffffffffff021916908373ffffffffffffffffffffffffffffffffffffffff160217905550565b60085481565b5f600754421061143657600754611438565b425b905090565b5f8054906101000a900473ffffffffffffffffffffffffffffffffffffffff1673ffffffffffffffffffffffffffffffffffffffff163373ffffffffffffffffffffffffffffffffffffffff16146114ca576040517f08c379a00000000000000000000000000000000000000000000000000000000081526004016114c190612225565b60405180910390fd5b60065f9054906101000a900473ffffffffffffffffffffffffffffffffffffffff1673ffffffffffffffffffffffffffffffffffffffff168273ffffffffffffffffffffffffffffffffffffffff1603611559576040517f08c379a00000000000000000000000000000000000000000000000000000000081526004016115509061256d565b60405180910390fd5b6115a35f8054906101000a900473ffffffffffffffffffffffffffffffffffffffff16828473ffffffffffffffffffffffffffffffffffffffff16611af39092919063ffffffff16565b7f8c1256b8896378cd5044f80c202f9772b9d77dc85c8a6eb51967210b09bfaa2882826040516115d492919061258b565b60405180910390a15050565b600c602052805f5260405f205f915090505481565b5f8054906101000a900473ffffffffffffffffffffffffffffffffffffffff1681565b60045481565b600260035403611663576040517f08c379a000000000000000000000000000000000000000000000000000000000815260040161165a9061228d565b60405180910390fd5b600260038190555060055f9054906101000a900460ff16156116ba576040517f08c379a00000000000000000000000000000000000000000000000000000000081526004016116b190612622565b60405180910390fd5b336116c3611a08565b600b819055506116d1611424565b600a819055505f73ffffffffffffffffffffffffffffffffffffffff168173ffffffffffffffffffffffffffffffffffffffff16146117995761171381610584565b600d5f8373ffffffffffffffffffffffffffffffffffffffff1673ffffffffffffffffffffffffffffffffffffffff1681526020019081526020015f2081905550600b54600c5f8373ffffffffffffffffffffffffffffffffffffffff1673ffffffffffffffffffffffffffffffffffffffff1681526020019081526020015f20819055505b5f82116117db576040517f08c379a00000000000000000000000000000000000000000000000000000000081526004016117d29061268a565b60405180910390fd5b81600e5f8282546117ec9190612172565b9250508190555081600f5f3373ffffffffffffffffffffffffffffffffffffffff1673ffffffffffffffffffffffffffffffffffffffff1681526020019081526020015f205f82825461183f9190612172565b9250508190555061189433308460065f9054906101000a900473ffffffffffffffffffffffffffffffffffffffff1673ffffffffffffffffffffffffffffffffffffffff16611b79909392919063ffffffff16565b3373ffffffffffffffffffffffffffffffffffffffff167f9e71bc8eea02a63969f509818f2dafb9254532904319f9dbda79b67bd34a5f3d836040516118da9190611ea4565b60405180910390a250600160038190555050565b600a5481565b5f8054906101000a900473ffffffffffffffffffffffffffffffffffffffff1673ffffffffffffffffffffffffffffffffffffffff163373ffffffffffffffffffffffffffffffffffffffff1614611981576040517f08c379a000000000000000000000000000000000000000000000000000000000815260040161197890612225565b60405180910390fd5b60075442116119c5576040517f08c379a00000000000000000000000000000000000000000000000000000000081526004016119bc9061273e565b60405180910390fd5b806009819055507ffb46ca5a5e06d4540d6387b930a7c978bce0db5f449ec6b3f5d07c6e1d44f2d36009546040516119fd9190611ea4565b60405180910390a150565b5f80600e5403611a1c57600b549050611a6e565b600e54670de0b6b3a7640000600854600a54611a36611424565b611a4091906120a1565b611a4a91906120d4565b611a5491906120d4565b611a5e9190612142565b600b54611a6b9190612172565b90505b90565b600560019054906101000a900473ffffffffffffffffffffffffffffffffffffffff1681565b600b5481565b611ae3600f5f3373ffffffffffffffffffffffffffffffffffffffff1673ffffffffffffffffffffffffffffffffffffffff1681526020019081526020015f20546109af565b611aeb610f4e565b565b60075481565b611b748363a9059cbb60e01b8484604051602401611b1292919061258b565b604051602081830303815290604052907bffffffffffffffffffffffffffffffffffffffffffffffffffffffff19166020820180517bffffffffffffffffffffffffffffffffffffffffffffffffffffffff8381831617835250505050611c02565b505050565b611bfc846323b872dd60e01b858585604051602401611b9a9392919061275c565b604051602081830303815290604052907bffffffffffffffffffffffffffffffffffffffffffffffffffffffff19166020820180517bffffffffffffffffffffffffffffffffffffffffffffffffffffffff8381831617835250505050611c02565b50505050565b5f611c63826040518060400160405280602081526020017f5361666545524332303a206c6f772d6c6576656c2063616c6c206661696c65648152508573ffffffffffffffffffffffffffffffffffffffff16611cc79092919063ffffffff16565b90505f81511115611cc25780806020019051810190611c8291906127a5565b611cc1576040517f08c379a0000000000000000000000000000000000000000000000000000000008152600401611cb890612840565b60405180910390fd5b5b505050565b6060611cd284611de1565b611d11576040517f08c379a0000000000000000000000000000000000000000000000000000000008152600401611d08906128a8565b60405180910390fd5b5f808573ffffffffffffffffffffffffffffffffffffffff1685604051611d389190612932565b5f604051808303815f865af19150503d805f8114611d71576040519150601f19603f3d011682016040523d82523d5f602084013e611d76565b606091505b50915091508115611d8b578092505050611dda565b5f81511115611d9d5780518082602001fd5b836040517f08c379a0000000000000000000000000000000000000000000000000000000008152600401611dd1919061299a565b60405180910390fd5b9392505050565b5f808273ffffffffffffffffffffffffffffffffffffffff163b119050919050565b5f80fd5b5f73ffffffffffffffffffffffffffffffffffffffff82169050919050565b5f611e3082611e07565b9050919050565b611e4081611e26565b8114611e4a575f80fd5b50565b5f81359050611e5b81611e37565b92915050565b5f60208284031215611e7657611e75611e03565b5b5f611e8384828501611e4d565b91505092915050565b5f819050919050565b611e9e81611e8c565b82525050565b5f602082019050611eb75f830184611e95565b92915050565b5f8115159050919050565b611ed181611ebd565b8114611edb575f80fd5b50565b5f81359050611eec81611ec8565b92915050565b5f60208284031215611f0757611f06611e03565b5b5f611f1484828501611ede565b91505092915050565b611f2681611e8c565b8114611f30575f80fd5b50565b5f81359050611f4181611f1d565b92915050565b5f60208284031215611f5c57611f5b611e03565b5b5f611f6984828501611f33565b91505092915050565b611f7b81611e26565b82525050565b5f602082019050611f945f830184611f72565b92915050565b611fa381611ebd565b82525050565b5f602082019050611fbc5f830184611f9a565b92915050565b5f819050919050565b5f611fe5611fe0611fdb84611e07565b611fc2565b611e07565b9050919050565b5f611ff682611fcb565b9050919050565b5f61200782611fec565b9050919050565b61201781611ffd565b82525050565b5f6020820190506120305f83018461200e565b92915050565b5f806040838503121561204c5761204b611e03565b5b5f61205985828601611e4d565b925050602061206a85828601611f33565b9150509250929050565b7f4e487b71000000000000000000000000000000000000000000000000000000005f52601160045260245ffd5b5f6120ab82611e8c565b91506120b683611e8c565b92508282039050818111156120ce576120cd612074565b5b92915050565b5f6120de82611e8c565b91506120e983611e8c565b92508282026120f781611e8c565b9150828204841483151761210e5761210d612074565b5b5092915050565b7f4e487b71000000000000000000000000000000000000000000000000000000005f52601260045260245ffd5b5f61214c82611e8c565b915061215783611e8c565b92508261216757612166612115565b5b828204905092915050565b5f61217c82611e8c565b915061218783611e8c565b925082820190508082111561219f5761219e612074565b5b92915050565b5f82825260208201905092915050565b7f4f6e6c792074686520636f6e7472616374206f776e6572206d617920706572665f8201527f6f726d207468697320616374696f6e0000000000000000000000000000000000602082015250565b5f61220f602f836121a5565b915061221a826121b5565b604082019050919050565b5f6020820190508181035f83015261223c81612203565b9050919050565b7f5265656e7472616e637947756172643a207265656e7472616e742063616c6c005f82015250565b5f612277601f836121a5565b915061228282612243565b602082019050919050565b5f6020820190508181035f8301526122a48161226b565b9050919050565b7f43616e6e6f7420776974686472617720300000000000000000000000000000005f82015250565b5f6122df6011836121a5565b91506122ea826122ab565b602082019050919050565b5f6020820190508181035f83015261230c816122d3565b9050919050565b7f43616c6c6572206973206e6f742052657761726473446973747269627574696f5f8201527f6e20636f6e747261637400000000000000000000000000000000000000000000602082015250565b5f61236d602a836121a5565b915061237882612313565b604082019050919050565b5f6020820190508181035f83015261239a81612361565b9050919050565b5f815190506123af81611f1d565b92915050565b5f602082840312156123ca576123c9611e03565b5b5f6123d7848285016123a1565b91505092915050565b7f50726f76696465642072657761726420746f6f206869676800000000000000005f82015250565b5f6124146018836121a5565b915061241f826123e0565b602082019050919050565b5f6020820190508181035f83015261244181612408565b9050919050565b7f596f75206d757374206265206e6f6d696e61746564206265666f726520796f755f8201527f2063616e20616363657074206f776e6572736869700000000000000000000000602082015250565b5f6124a26035836121a5565b91506124ad82612448565b604082019050919050565b5f6020820190508181035f8301526124cf81612496565b9050919050565b5f6040820190506124e95f830185611f72565b6124f66020830184611f72565b9392505050565b7f43616e6e6f7420776974686472617720746865207374616b696e6720746f6b655f8201527f6e00000000000000000000000000000000000000000000000000000000000000602082015250565b5f6125576021836121a5565b9150612562826124fd565b604082019050919050565b5f6020820190508181035f8301526125848161254b565b9050919050565b5f60408201905061259e5f830185611f72565b6125ab6020830184611e95565b9392505050565b7f5468697320616374696f6e2063616e6e6f7420626520706572666f726d6564205f8201527f7768696c652074686520636f6e74726163742069732070617573656400000000602082015250565b5f61260c603c836121a5565b9150612617826125b2565b604082019050919050565b5f6020820190508181035f83015261263981612600565b9050919050565b7f43616e6e6f74207374616b6520300000000000000000000000000000000000005f82015250565b5f612674600e836121a5565b915061267f82612640565b602082019050919050565b5f6020820190508181035f8301526126a181612668565b9050919050565b7f50726576696f7573207265776172647320706572696f64206d757374206265205f8201527f636f6d706c657465206265666f7265206368616e67696e67207468652064757260208201527f6174696f6e20666f7220746865206e657720706572696f640000000000000000604082015250565b5f6127286058836121a5565b9150612733826126a8565b606082019050919050565b5f6020820190508181035f8301526127558161271c565b9050919050565b5f60608201905061276f5f830186611f72565b61277c6020830185611f72565b6127896040830184611e95565b949350505050565b5f8151905061279f81611ec8565b92915050565b5f602082840312156127ba576127b9611e03565b5b5f6127c784828501612791565b91505092915050565b7f5361666545524332303a204552433230206f7065726174696f6e20646964206e5f8201527f6f74207375636365656400000000000000000000000000000000000000000000602082015250565b5f61282a602a836121a5565b9150612835826127d0565b604082019050919050565b5f6020820190508181035f8301526128578161281e565b9050919050565b7f416464726573733a2063616c6c20746f206e6f6e2d636f6e74726163740000005f82015250565b5f612892601d836121a5565b915061289d8261285e565b602082019050919050565b5f6020820190508181035f8301526128bf81612886565b9050919050565b5f81519050919050565b5f81905092915050565b5f5b838110156128f75780820151818401526020810190506128dc565b5f8484015250505050565b5f61290c826128c6565b61291681856128d0565b93506129268185602086016128da565b80840191505092915050565b5f61293d8284612902565b915081905092915050565b5f81519050919050565b5f601f19601f8301169050919050565b5f61296c82612948565b61297681856121a5565b93506129868185602086016128da565b61298f81612952565b840191505092915050565b5f6020820190508181035f8301526129b28184612962565b90509291505056fea2646970667358221220344fd7289f0f5b598b6074a8c03f19d061127e65ea80019483488152f05e84e464736f6c63430008180033","linkReferences":{}},"methodIdentifiers":{"acceptOwnership()":"79ba5097","balanceOf(address)":"70a08231","earned(address)":"008cc262","exit()":"e9fad8ee","getReward()":"3d18b912","getRewardForDuration()":"1c1f78eb","lastPauseTime()":"91b4ded9","lastTimeRewardApplicable()":"80faa57d","lastUpdateTime()":"c8f33c91","nominateNewOwner(address)":"1627540c","nominatedOwner()":"53a47bb7","notifyRewardAmount(uint256)":"3c6b16ab","owner()":"8da5cb5b","paused()":"5c975abb","periodFinish()":"ebe2b12b","recoverERC20(address,uint256)":"8980f11f","rewardPerToken()":"cd3daf9d","rewardPerTokenStored()":"df136d65","rewardRate()":"7b0a47ee","rewards(address)":"0700037d","rewardsDistribution()":"3fc6df6e","rewardsDuration()":"386a9525","rewardsToken()":"d1af0c7d","setPaused(bool)":"16c38b3c","setRewardsDistribution(address)":"19762143","setRewardsDuration(uint256)":"cc1a378f","stake(uint256)":"a694fc3a","stakingToken()":"72f702f3","totalSupply()":"18160ddd","userRewardPerTokenPaid(address)":"8b876347","withdraw(uint256)":"2e1a7d4d"},"id":3}