{"abi":[{"type":"constructor","inputs":[{"name":"_sushi","type":"address","internalType":"contract SushiToken"},{"name":"_devaddr","type":"address","internalType":"address"},{"name":"_sushiPerBlock","type":"uint256","internalType":"uint256"},{"name":"_startBlock","type":"uint256","internalType":"uint256"},{"name":"_bonusEndBlock","type":"uint256","internalType":"uint256"}],"stateMutability":"nonpayable"},{"type":"function","name":"BONUS_MULTIPLIER","inputs":[],"outputs":[{"name":"","type":"uint256","internalType":"uint256"}],"stateMutability":"view"},{"type":"function","name":"add","inputs":[{"name":"_allocPoint","type":"uint256","internalType":"uint256"},{"name":"_lpToken","type":"address","internalType":"contract IERC20"},{"name":"_withUpdate","type":"bool","internalType":"bool"}],"outputs":[],"stateMutability":"nonpayable"},{"type":"function","name":"bonusEndBlock","inputs":[],"outputs":[{"name":"","type":"uint256","internalType":"uint256"}],"stateMutability":"view"},{"type":"function","name":"deposit","inputs":[{"name":"_pid","type":"uint256","internalType":"uint256"},{"name":"_amount","type":"uint256","internalType":"uint256"}],"outputs":[],"stateMutability":"nonpayable"},{"type":"function","name":"dev","inputs":[{"name":"_devaddr","type":"address","internalType":"address"}],"outputs":[],"stateMutability":"nonpayable"},{"type":"function","name":"devaddr","inputs":[],"outputs":[{"name":"","type":"address","internalType":"address"}],"stateMutability":"view"},{"type":"function","name":"emergencyWithdraw","inputs":[{"name":"_pid","type":"uint256","internalType":"uint256"}],"outputs":[],"stateMutability":"nonpayable"},{"type":"function","name":"getMultiplier","inputs":[{"name":"_from","type":"uint256","internalType":"uint256"},{"name":"_to","type":"uint256","internalType":"uint256"}],"outputs":[{"name":"","type":"uint256","internalType":"uint256"}],"stateMutability":"view"},{"type":"function","name":"massUpdatePools","inputs":[],"outputs":[],"stateMutability":"nonpayable"},{"type":"function","name":"migrate","inputs":[{"name":"_pid","type":"uint256","internalType":"uint256"}],"outputs":[],"stateMutability":"nonpayable"},{"type":"function","name":"migrator","inputs":[],"outputs":[{"name":"","type":"address","internalType":"contract IMigratorChef"}],"stateMutability":"view"},{"type":"function","name":"owner","inputs":[],"outputs":[{"name":"","type":"address","internalType":"address"}],"stateMutability":"view"},{"type":"function","name":"pendingSushi","inputs":[{"name":"_pid","type":"uint256","internalType":"uint256"},{"name":"_user","type":"address","internalType":"address"}],"outputs":[{"name":"","type":"uint256","internalType":"uint256"}],"stateMutability":"view"},{"type":"function","name":"poolInfo","inputs":[{"name":"","type":"uint256","internalType":"uint256"}],"outputs":[{"name":"lpToken","type":"address","internalType":"contract IERC20"},{"name":"allocPoint","type":"uint256","internalType":"uint256"},{"name":"lastRewardBlock","type":"uint256","internalType":"uint256"},{"name":"accSushiPerShare","type":"uint256","internalType":"uint256"}],"stateMutability":"view"},{"type":"function","name":"poolLength","inputs":[],"outputs":[{"name":"","type":"uint256","internalType":"uint256"}],"stateMutability":"view"},{"type":"function","name":"renounceOwnership","inputs":[],"outputs":[],"stateMutability":"nonpayable"},{"type":"function","name":"set","inputs":[{"name":"_pid","type":"uint256","internalType":"uint256"},{"name":"_allocPoint","type":"uint256","internalType":"uint256"},{"name":"_withUpdate","type":"bool","internalType":"bool"}],"outputs":[],"stateMutability":"nonpayable"},{"type":"function","name":"setMigrator","inputs":[{"name":"_migrator","type":"address","internalType":"contract IMigratorChef"}],"outputs":[],"stateMutability":"nonpayable"},{"type":"function","name":"startBlock","inputs":[],"outputs":[{"name":"","type":"uint256","internalType":"uint256"}],"stateMutability":"view"},{"type":"function","name":"sushi","inputs":[],"outputs":[{"name":"","type":"address","internalType":"contract SushiToken"}],"stateMutability":"view"},{"type":"function","name":"sushiPerBlock","inputs":[],"outputs":[{"name":"","type":"uint256","internalType":"uint256"}],"stateMutability":"view"},{"type":"function","name":"totalAllocPoint","inputs":[],"outputs":[{"name":"","type":"uint256","internalType":"uint256"}],"stateMutability":"view"},{"type":"function","name":"transferOwnership","inputs":[{"name":"newOwner","type":"address","internalType":"address"}],"outputs":[],"stateMutability":"nonpayable"},{"type":"function","name":"updatePool","inputs":[{"name":"_pid","type":"uint256","internalType":"uint256"}],"outputs":[],"stateMutability":"nonpayable"},{"type":"function","name":"userInfo","inputs":[{"name":"","type":"uint256","internalType":"uint256"},{"name":"","type":"address","internalType":"address"}],"outputs":[{"name":"amount","type":"uint256","internalType":"uint256"},{"name":"rewardDebt","type":"uint256","internalType":"uint256"}],"stateMutability":"view"},{"type":"function","name":"withdraw","inputs":[{"name":"_pid","type":"uint256","internalType":"uint256"},{"name":"_amount","type":"uint256","internalType":"uint256"}],"outputs":[],"stateMutability":"nonpayable"},{"type":"event","name":"Deposit","inputs":[{"name":"user","type":"address","indexed":true,"internalType":"address"},{"name":"pid","type":"uint256","indexed":true,"internalType":"uint256"},{"name":"amount","type":"uint256","indexed":false,"internalType":"uint256"}],"anonymous":false},{"type":"event","name":"EmergencyWithdraw","inputs":[{"name":"user","type":"address","indexed":true,"internalType":"address"},{"name":"pid","type":"uint256","indexed":true,"internalType":"uint256"},{"name":"amount","type":"uint256","indexed":false,"internalType":"uint256"}],"anonymous":false},{"type":"event","name":"OwnershipTransferred","inputs":[{"name":"previousOwner","type":"address","indexed":true,"internalType":"address"},{"name":"newOwner","type":"address","indexed":true,"internalType":"address"}],"anonymous":false},{"type":"event","name":"Withdraw","inputs":[{"name":"user","type":"address","indexed":true,"internalType":"address"},{"name":"pid","type":"uint256","indexed":true,"internalType":"uint256"},{"name":"amount","type":"uint256","indexed":false,"internalType":"uint256"}],"anonymous":false}],"bytecode":{"object":"0x60806040525f60085534801562000014575f80fd5b5060405162002d7938038062002d7983398181016040528101906200003a91906200028b565b6200004b33620000eb60201b60201c565b8460015f6101000a81548173ffffffffffffffffffffffffffffffffffffffff021916908373ffffffffffffffffffffffffffffffffffffffff1602179055508360025f6101000a81548173ffffffffffffffffffffffffffffffffffffffff021916908373ffffffffffffffffffffffffffffffffffffffff16021790555082600481905550806003819055508160098190555050505050506200030f565b5f805f9054906101000a900473ffffffffffffffffffffffffffffffffffffffff169050815f806101000a81548173ffffffffffffffffffffffffffffffffffffffff021916908373ffffffffffffffffffffffffffffffffffffffff1602179055508173ffffffffffffffffffffffffffffffffffffffff168173ffffffffffffffffffffffffffffffffffffffff167f8be0079c531659141344cd1fd0a4f28419497f9722a3daafe3b4186f6b6457e060405160405180910390a35050565b5f80fd5b5f73ffffffffffffffffffffffffffffffffffffffff82169050919050565b5f620001db82620001b0565b9050919050565b5f620001ee82620001cf565b9050919050565b6200020081620001e2565b81146200020b575f80fd5b50565b5f815190506200021e81620001f5565b92915050565b6200022f81620001cf565b81146200023a575f80fd5b50565b5f815190506200024d8162000224565b92915050565b5f819050919050565b620002678162000253565b811462000272575f80fd5b50565b5f8151905062000285816200025c565b92915050565b5f805f805f60a08688031215620002a757620002a6620001ac565b5b5f620002b6888289016200020e565b9550506020620002c9888289016200023d565b9450506040620002dc8882890162000275565b9350506060620002ef8882890162000275565b9250506080620003028882890162000275565b9150509295509295909350565b612a5c806200031d5f395ff3fe608060405234801561000f575f80fd5b506004361061018c575f3560e01c8063630b5ba1116100dc5780638da5cb5b11610095578063b0bcf42a1161006f578063b0bcf42a14610438578063d49e77cd14610456578063e2bbb15814610474578063f2fde38b146104905761018c565b80638da5cb5b146103b95780638dbb1e3a146103d757806393f1a40b146104075761018c565b8063630b5ba11461033157806364482f791461033b578063715018a6146103575780637cd07e47146103615780638aa285501461037f5780638d88a90e1461039d5761018c565b80631eaaa04511610149578063454b060811610123578063454b0608146102bf57806348cd4cb1146102db57806351eb05a6146102f95780635312ea8e146103155761018c565b80631eaaa0451461026b57806323cf311814610287578063441a3e70146102a35761018c565b8063081e3eda146101905780630a087903146101ae5780631526fe27146101cc57806317caf6f1146101ff578063195426ec1461021d5780631aed65531461024d575b5f80fd5b6101986104ac565b6040516101a59190611ebe565b60405180910390f35b6101b66104b8565b6040516101c39190611f51565b60405180910390f35b6101e660048036038101906101e19190611f98565b6104dd565b6040516101f69493929190611fe3565b60405180910390f35b610207610537565b6040516102149190611ebe565b60405180910390f35b61023760048036038101906102329190612061565b61053d565b6040516102449190611ebe565b60405180910390f35b610255610711565b6040516102629190611ebe565b60405180910390f35b6102856004803603810190610280919061210f565b610717565b005b6102a1600480360381019061029c919061219a565b610892565b005b6102bd60048036038101906102b891906121c5565b61094a565b005b6102d960048036038101906102d49190611f98565b610b31565b005b6102e3610e6e565b6040516102f09190611ebe565b60405180910390f35b610313600480360381019061030e9190611f98565b610e74565b005b61032f600480360381019061032a9190611f98565b61111f565b005b61033961124b565b005b61035560048036038101906103509190612203565b611276565b005b61035f61134f565b005b6103696113cf565b6040516103769190612273565b60405180910390f35b6103876113f4565b6040516103949190611ebe565b60405180910390f35b6103b760048036038101906103b2919061228c565b6113f9565b005b6103c16114cb565b6040516103ce91906122c6565b60405180910390f35b6103f160048036038101906103ec91906121c5565b6114f2565b6040516103fe9190611ebe565b60405180910390f35b610421600480360381019061041c9190612061565b611572565b60405161042f9291906122df565b60405180910390f35b61044061159d565b60405161044d9190611ebe565b60405180910390f35b61045e6115a3565b60405161046b91906122c6565b60405180910390f35b61048e600480360381019061048991906121c5565b6115c8565b005b6104aa60048036038101906104a5919061228c565b611777565b005b5f600680549050905090565b60015f9054906101000a900473ffffffffffffffffffffffffffffffffffffffff1681565b600681815481106104ec575f80fd5b905f5260205f2090600402015f91509050805f015f9054906101000a900473ffffffffffffffffffffffffffffffffffffffff16908060010154908060020154908060030154905084565b60085481565b5f806006848154811061055357610552612306565b5b905f5260205f20906004020190505f60075f8681526020019081526020015f205f8573ffffffffffffffffffffffffffffffffffffffff1673ffffffffffffffffffffffffffffffffffffffff1681526020019081526020015f2090505f826003015490505f835f015f9054906101000a900473ffffffffffffffffffffffffffffffffffffffff1673ffffffffffffffffffffffffffffffffffffffff166370a08231306040518263ffffffff1660e01b815260040161061491906122c6565b602060405180830381865afa15801561062f573d5f803e3d5ffd5b505050506040513d601f19601f820116820180604052508101906106539190612347565b905083600201544311801561066857505f8114155b156106d7575f61067c8560020154436114f2565b90505f600854866001015460045484610695919061239f565b61069f919061239f565b6106a9919061240d565b90508264e8d4a51000826106bd919061239f565b6106c7919061240d565b846106d2919061243d565b935050505b826001015464e8d4a5100083855f01546106f1919061239f565b6106fb919061240d565b6107059190612470565b94505050505092915050565b60035481565b3373ffffffffffffffffffffffffffffffffffffffff166107366114cb565b73ffffffffffffffffffffffffffffffffffffffff161461078c576040517f08c379a0000000000000000000000000000000000000000000000000000000008152600401610783906124fd565b60405180910390fd5b801561079b5761079a61124b565b5b5f60095443116107ad576009546107af565b435b90508360085f8282546107c2919061243d565b92505081905550600660405180608001604052808573ffffffffffffffffffffffffffffffffffffffff1681526020018681526020018381526020015f815250908060018154018082558091505060019003905f5260205f2090600402015f909190919091505f820151815f015f6101000a81548173ffffffffffffffffffffffffffffffffffffffff021916908373ffffffffffffffffffffffffffffffffffffffff160217905550602082015181600101556040820151816002015560608201518160030155505050505050565b3373ffffffffffffffffffffffffffffffffffffffff166108b16114cb565b73ffffffffffffffffffffffffffffffffffffffff1614610907576040517f08c379a00000000000000000000000000000000000000000000000000000000081526004016108fe906124fd565b60405180910390fd5b8060055f6101000a81548173ffffffffffffffffffffffffffffffffffffffff021916908373ffffffffffffffffffffffffffffffffffffffff16021790555050565b5f6006838154811061095f5761095e612306565b5b905f5260205f20906004020190505f60075f8581526020019081526020015f205f3373ffffffffffffffffffffffffffffffffffffffff1673ffffffffffffffffffffffffffffffffffffffff1681526020019081526020015f20905082815f01541015610a02576040517f08c379a00000000000000000000000000000000000000000000000000000000081526004016109f990612565565b60405180910390fd5b610a0b84610e74565b5f816001015464e8d4a510008460030154845f0154610a2a919061239f565b610a34919061240d565b610a3e9190612470565b9050610a4a3382611866565b83825f015f828254610a5c9190612470565b9250508190555064e8d4a510008360030154835f0154610a7c919061239f565b610a86919061240d565b8260010181905550610adb3385855f015f9054906101000a900473ffffffffffffffffffffffffffffffffffffffff1673ffffffffffffffffffffffffffffffffffffffff16611a4f9092919063ffffffff16565b843373ffffffffffffffffffffffffffffffffffffffff167ff279e6a1f5e320cca91135676d9cb6e44ca8a08c0b88342bcdb1144f6511b56886604051610b229190611ebe565b60405180910390a35050505050565b5f73ffffffffffffffffffffffffffffffffffffffff1660055f9054906101000a900473ffffffffffffffffffffffffffffffffffffffff1673ffffffffffffffffffffffffffffffffffffffff1603610bc0576040517f08c379a0000000000000000000000000000000000000000000000000000000008152600401610bb7906125cd565b60405180910390fd5b5f60068281548110610bd557610bd4612306565b5b905f5260205f20906004020190505f815f015f9054906101000a900473ffffffffffffffffffffffffffffffffffffffff1690505f8173ffffffffffffffffffffffffffffffffffffffff166370a08231306040518263ffffffff1660e01b8152600401610c4391906122c6565b602060405180830381865afa158015610c5e573d5f803e3d5ffd5b505050506040513d601f19601f82011682018060405250810190610c829190612347565b9050610cd060055f9054906101000a900473ffffffffffffffffffffffffffffffffffffffff16828473ffffffffffffffffffffffffffffffffffffffff16611ad59092919063ffffffff16565b5f60055f9054906101000a900473ffffffffffffffffffffffffffffffffffffffff1673ffffffffffffffffffffffffffffffffffffffff1663ce5494bb846040518263ffffffff1660e01b8152600401610d2b91906125eb565b6020604051808303815f875af1158015610d47573d5f803e3d5ffd5b505050506040513d601f19601f82011682018060405250810190610d6b9190612618565b90508073ffffffffffffffffffffffffffffffffffffffff166370a08231306040518263ffffffff1660e01b8152600401610da691906122c6565b602060405180830381865afa158015610dc1573d5f803e3d5ffd5b505050506040513d601f19601f82011682018060405250810190610de59190612347565b8214610e26576040517f08c379a0000000000000000000000000000000000000000000000000000000008152600401610e1d9061268d565b60405180910390fd5b80845f015f6101000a81548173ffffffffffffffffffffffffffffffffffffffff021916908373ffffffffffffffffffffffffffffffffffffffff1602179055505050505050565b60095481565b5f60068281548110610e8957610e88612306565b5b905f5260205f209060040201905080600201544311610ea8575061111c565b5f815f015f9054906101000a900473ffffffffffffffffffffffffffffffffffffffff1673ffffffffffffffffffffffffffffffffffffffff166370a08231306040518263ffffffff1660e01b8152600401610f0491906122c6565b602060405180830381865afa158015610f1f573d5f803e3d5ffd5b505050506040513d601f19601f82011682018060405250810190610f439190612347565b90505f8103610f5c57438260020181905550505061111c565b5f610f6b8360020154436114f2565b90505f600854846001015460045484610f84919061239f565b610f8e919061239f565b610f98919061240d565b905060015f9054906101000a900473ffffffffffffffffffffffffffffffffffffffff1673ffffffffffffffffffffffffffffffffffffffff166340c10f1960025f9054906101000a900473ffffffffffffffffffffffffffffffffffffffff16600a84611006919061240d565b6040518363ffffffff1660e01b81526004016110239291906126ab565b5f604051808303815f87803b15801561103a575f80fd5b505af115801561104c573d5f803e3d5ffd5b5050505060015f9054906101000a900473ffffffffffffffffffffffffffffffffffffffff1673ffffffffffffffffffffffffffffffffffffffff166340c10f1930836040518363ffffffff1660e01b81526004016110ac9291906126ab565b5f604051808303815f87803b1580156110c3575f80fd5b505af11580156110d5573d5f803e3d5ffd5b505050508264e8d4a51000826110eb919061239f565b6110f5919061240d565b846003015f828254611107919061243d565b92505081905550438460020181905550505050505b50565b5f6006828154811061113457611133612306565b5b905f5260205f20906004020190505f60075f8481526020019081526020015f205f3373ffffffffffffffffffffffffffffffffffffffff1673ffffffffffffffffffffffffffffffffffffffff1681526020019081526020015f2090505f815f015490506111e53382855f015f9054906101000a900473ffffffffffffffffffffffffffffffffffffffff1673ffffffffffffffffffffffffffffffffffffffff16611a4f9092919063ffffffff16565b833373ffffffffffffffffffffffffffffffffffffffff167fbb757047c2b5f3974fe26b7c10f732e7bce710b0952a71082702781e62ae05958360405161122c9190611ebe565b60405180910390a35f825f01819055505f826001018190555050505050565b5f60068054905090505f5b818110156112725761126781610e74565b806001019050611256565b5050565b3373ffffffffffffffffffffffffffffffffffffffff166112956114cb565b73ffffffffffffffffffffffffffffffffffffffff16146112eb576040517f08c379a00000000000000000000000000000000000000000000000000000000081526004016112e2906124fd565b60405180910390fd5b80156112fa576112f961124b565b5b5f6006848154811061130f5761130e612306565b5b905f5260205f20906004020190508281600101546008546113309190612470565b61133a919061243d565b60088190555082816001018190555050505050565b3373ffffffffffffffffffffffffffffffffffffffff1661136e6114cb565b73ffffffffffffffffffffffffffffffffffffffff16146113c4576040517f08c379a00000000000000000000000000000000000000000000000000000000081526004016113bb906124fd565b60405180910390fd5b6113cd5f611b5b565b565b60055f9054906101000a900473ffffffffffffffffffffffffffffffffffffffff1681565b600a81565b60025f9054906101000a900473ffffffffffffffffffffffffffffffffffffffff1673ffffffffffffffffffffffffffffffffffffffff163373ffffffffffffffffffffffffffffffffffffffff1614611488576040517f08c379a000000000000000000000000000000000000000000000000000000000815260040161147f9061271c565b60405180910390fd5b8060025f6101000a81548173ffffffffffffffffffffffffffffffffffffffff021916908373ffffffffffffffffffffffffffffffffffffffff16021790555050565b5f805f9054906101000a900473ffffffffffffffffffffffffffffffffffffffff16905090565b5f600354821161151b57600a838361150a9190612470565b611514919061239f565b905061156c565b60035483106115375782826115309190612470565b905061156c565b600354826115459190612470565b600a846003546115559190612470565b61155f919061239f565b611569919061243d565b90505b92915050565b6007602052815f5260405f20602052805f5260405f205f9150915050805f0154908060010154905082565b60045481565b60025f9054906101000a900473ffffffffffffffffffffffffffffffffffffffff1681565b5f600683815481106115dd576115dc612306565b5b905f5260205f20906004020190505f60075f8581526020019081526020015f205f3373ffffffffffffffffffffffffffffffffffffffff1673ffffffffffffffffffffffffffffffffffffffff1681526020019081526020015f20905061164384610e74565b5f815f0154111561168f575f816001015464e8d4a510008460030154845f015461166d919061239f565b611677919061240d565b6116819190612470565b905061168d3382611866565b505b6116de333085855f015f9054906101000a900473ffffffffffffffffffffffffffffffffffffffff1673ffffffffffffffffffffffffffffffffffffffff16611c1c909392919063ffffffff16565b82815f015f8282546116f0919061243d565b9250508190555064e8d4a510008260030154825f0154611710919061239f565b61171a919061240d565b8160010181905550833373ffffffffffffffffffffffffffffffffffffffff167f90890809c654f11d6e72a28fa60149770a0d11ec6c92319d6ceb2bb0a4ea1a15856040516117699190611ebe565b60405180910390a350505050565b3373ffffffffffffffffffffffffffffffffffffffff166117966114cb565b73ffffffffffffffffffffffffffffffffffffffff16146117ec576040517f08c379a00000000000000000000000000000000000000000000000000000000081526004016117e3906124fd565b60405180910390fd5b5f73ffffffffffffffffffffffffffffffffffffffff168173ffffffffffffffffffffffffffffffffffffffff160361185a576040517f08c379a0000000000000000000000000000000000000000000000000000000008152600401611851906127aa565b60405180910390fd5b61186381611b5b565b50565b5f60015f9054906101000a900473ffffffffffffffffffffffffffffffffffffffff1673ffffffffffffffffffffffffffffffffffffffff166370a08231306040518263ffffffff1660e01b81526004016118c191906122c6565b602060405180830381865afa1580156118dc573d5f803e3d5ffd5b505050506040513d601f19601f820116820180604052508101906119009190612347565b9050808211156119ac5760015f9054906101000a900473ffffffffffffffffffffffffffffffffffffffff1673ffffffffffffffffffffffffffffffffffffffff1663a9059cbb84836040518363ffffffff1660e01b81526004016119669291906126ab565b6020604051808303815f875af1158015611982573d5f803e3d5ffd5b505050506040513d601f19601f820116820180604052508101906119a691906127dc565b50611a4a565b60015f9054906101000a900473ffffffffffffffffffffffffffffffffffffffff1673ffffffffffffffffffffffffffffffffffffffff1663a9059cbb84846040518363ffffffff1660e01b8152600401611a089291906126ab565b6020604051808303815f875af1158015611a24573d5f803e3d5ffd5b505050506040513d601f19601f82011682018060405250810190611a4891906127dc565b505b505050565b611ad08363a9059cbb60e01b8484604051602401611a6e9291906126ab565b604051602081830303815290604052907bffffffffffffffffffffffffffffffffffffffffffffffffffffffff19166020820180517bffffffffffffffffffffffffffffffffffffffffffffffffffffffff8381831617835250505050611ca5565b505050565b611b568363095ea7b360e01b8484604051602401611af49291906126ab565b604051602081830303815290604052907bffffffffffffffffffffffffffffffffffffffffffffffffffffffff19166020820180517bffffffffffffffffffffffffffffffffffffffffffffffffffffffff8381831617835250505050611ca5565b505050565b5f805f9054906101000a900473ffffffffffffffffffffffffffffffffffffffff169050815f806101000a81548173ffffffffffffffffffffffffffffffffffffffff021916908373ffffffffffffffffffffffffffffffffffffffff1602179055508173ffffffffffffffffffffffffffffffffffffffff168173ffffffffffffffffffffffffffffffffffffffff167f8be0079c531659141344cd1fd0a4f28419497f9722a3daafe3b4186f6b6457e060405160405180910390a35050565b611c9f846323b872dd60e01b858585604051602401611c3d93929190612807565b604051602081830303815290604052907bffffffffffffffffffffffffffffffffffffffffffffffffffffffff19166020820180517bffffffffffffffffffffffffffffffffffffffffffffffffffffffff8381831617835250505050611ca5565b50505050565b5f611d06826040518060400160405280602081526020017f5361666545524332303a206c6f772d6c6576656c2063616c6c206661696c65648152508573ffffffffffffffffffffffffffffffffffffffff16611d6a9092919063ffffffff16565b90505f81511115611d655780806020019051810190611d2591906127dc565b611d64576040517f08c379a0000000000000000000000000000000000000000000000000000000008152600401611d5b906128ac565b60405180910390fd5b5b505050565b6060611d7584611e84565b611db4576040517f08c379a0000000000000000000000000000000000000000000000000000000008152600401611dab90612914565b60405180910390fd5b5f808573ffffffffffffffffffffffffffffffffffffffff1685604051611ddb919061299e565b5f604051808303815f865af19150503d805f8114611e14576040519150601f19603f3d011682016040523d82523d5f602084013e611e19565b606091505b50915091508115611e2e578092505050611e7d565b5f81511115611e405780518082602001fd5b836040517f08c379a0000000000000000000000000000000000000000000000000000000008152600401611e749190612a06565b60405180910390fd5b9392505050565b5f808273ffffffffffffffffffffffffffffffffffffffff163b119050919050565b5f819050919050565b611eb881611ea6565b82525050565b5f602082019050611ed15f830184611eaf565b92915050565b5f73ffffffffffffffffffffffffffffffffffffffff82169050919050565b5f819050919050565b5f611f19611f14611f0f84611ed7565b611ef6565b611ed7565b9050919050565b5f611f2a82611eff565b9050919050565b5f611f3b82611f20565b9050919050565b611f4b81611f31565b82525050565b5f602082019050611f645f830184611f42565b92915050565b5f80fd5b611f7781611ea6565b8114611f81575f80fd5b50565b5f81359050611f9281611f6e565b92915050565b5f60208284031215611fad57611fac611f6a565b5b5f611fba84828501611f84565b91505092915050565b5f611fcd82611f20565b9050919050565b611fdd81611fc3565b82525050565b5f608082019050611ff65f830187611fd4565b6120036020830186611eaf565b6120106040830185611eaf565b61201d6060830184611eaf565b95945050505050565b5f61203082611ed7565b9050919050565b61204081612026565b811461204a575f80fd5b50565b5f8135905061205b81612037565b92915050565b5f806040838503121561207757612076611f6a565b5b5f61208485828601611f84565b92505060206120958582860161204d565b9150509250929050565b5f6120a982612026565b9050919050565b6120b98161209f565b81146120c3575f80fd5b50565b5f813590506120d4816120b0565b92915050565b5f8115159050919050565b6120ee816120da565b81146120f8575f80fd5b50565b5f81359050612109816120e5565b92915050565b5f805f6060848603121561212657612125611f6a565b5b5f61213386828701611f84565b9350506020612144868287016120c6565b9250506040612155868287016120fb565b9150509250925092565b5f61216982612026565b9050919050565b6121798161215f565b8114612183575f80fd5b50565b5f8135905061219481612170565b92915050565b5f602082840312156121af576121ae611f6a565b5b5f6121bc84828501612186565b91505092915050565b5f80604083850312156121db576121da611f6a565b5b5f6121e885828601611f84565b92505060206121f985828601611f84565b9150509250929050565b5f805f6060848603121561221a57612219611f6a565b5b5f61222786828701611f84565b935050602061223886828701611f84565b9250506040612249868287016120fb565b9150509250925092565b5f61225d82611f20565b9050919050565b61226d81612253565b82525050565b5f6020820190506122865f830184612264565b92915050565b5f602082840312156122a1576122a0611f6a565b5b5f6122ae8482850161204d565b91505092915050565b6122c081612026565b82525050565b5f6020820190506122d95f8301846122b7565b92915050565b5f6040820190506122f25f830185611eaf565b6122ff6020830184611eaf565b9392505050565b7f4e487b71000000000000000000000000000000000000000000000000000000005f52603260045260245ffd5b5f8151905061234181611f6e565b92915050565b5f6020828403121561235c5761235b611f6a565b5b5f61236984828501612333565b91505092915050565b7f4e487b71000000000000000000000000000000000000000000000000000000005f52601160045260245ffd5b5f6123a982611ea6565b91506123b483611ea6565b92508282026123c281611ea6565b915082820484148315176123d9576123d8612372565b5b5092915050565b7f4e487b71000000000000000000000000000000000000000000000000000000005f52601260045260245ffd5b5f61241782611ea6565b915061242283611ea6565b925082612432576124316123e0565b5b828204905092915050565b5f61244782611ea6565b915061245283611ea6565b925082820190508082111561246a57612469612372565b5b92915050565b5f61247a82611ea6565b915061248583611ea6565b925082820390508181111561249d5761249c612372565b5b92915050565b5f82825260208201905092915050565b7f4f776e61626c653a2063616c6c6572206973206e6f7420746865206f776e65725f82015250565b5f6124e76020836124a3565b91506124f2826124b3565b602082019050919050565b5f6020820190508181035f830152612514816124db565b9050919050565b7f77697468647261773a206e6f7420676f6f6400000000000000000000000000005f82015250565b5f61254f6012836124a3565b915061255a8261251b565b602082019050919050565b5f6020820190508181035f83015261257c81612543565b9050919050565b7f6d6967726174653a206e6f206d69677261746f720000000000000000000000005f82015250565b5f6125b76014836124a3565b91506125c282612583565b602082019050919050565b5f6020820190508181035f8301526125e4816125ab565b9050919050565b5f6020820190506125fe5f830184611fd4565b92915050565b5f81519050612612816120b0565b92915050565b5f6020828403121561262d5761262c611f6a565b5b5f61263a84828501612604565b91505092915050565b7f6d6967726174653a2062616400000000000000000000000000000000000000005f82015250565b5f612677600c836124a3565b915061268282612643565b602082019050919050565b5f6020820190508181035f8301526126a48161266b565b9050919050565b5f6040820190506126be5f8301856122b7565b6126cb6020830184611eaf565b9392505050565b7f6465763a207775743f00000000000000000000000000000000000000000000005f82015250565b5f6127066009836124a3565b9150612711826126d2565b602082019050919050565b5f6020820190508181035f830152612733816126fa565b9050919050565b7f4f776e61626c653a206e6577206f776e657220697320746865207a65726f20615f8201527f6464726573730000000000000000000000000000000000000000000000000000602082015250565b5f6127946026836124a3565b915061279f8261273a565b604082019050919050565b5f6020820190508181035f8301526127c181612788565b9050919050565b5f815190506127d6816120e5565b92915050565b5f602082840312156127f1576127f0611f6a565b5b5f6127fe848285016127c8565b91505092915050565b5f60608201905061281a5f8301866122b7565b61282760208301856122b7565b6128346040830184611eaf565b949350505050565b7f5361666545524332303a204552433230206f7065726174696f6e20646964206e5f8201527f6f74207375636365656400000000000000000000000000000000000000000000602082015250565b5f612896602a836124a3565b91506128a18261283c565b604082019050919050565b5f6020820190508181035f8301526128c38161288a565b9050919050565b7f416464726573733a2063616c6c20746f206e6f6e2d636f6e74726163740000005f82015250565b5f6128fe601d836124a3565b9150612909826128ca565b602082019050919050565b5f6020820190508181035f83015261292b816128f2565b9050919050565b5f81519050919050565b5f81905092915050565b5f5b83811015612963578082015181840152602081019050612948565b5f8484015250505050565b5f61297882612932565b612982818561293c565b9350612992818560208601612946565b80840191505092915050565b5f6129a9828461296e565b915081905092915050565b5f81519050919050565b5f601f19601f8301169050919050565b5f6129d8826129b4565b6129e281856124a3565b93506129f2818560208601612946565b6129fb816129be565b840191505092915050565b5f6020820190508181035f830152612a1e81846129ce565b90509291505056fea2646970667358221220a1c426df619db045a55479cdbace46c38c039210e0de53ca7c4aadfbc07a481264736f6c63430008180033","linkReferences":{}},"methodIdentifiers":{"BONUS_MULTIPLIER()":"8aa28550","add(uint256,address,bool)":"1eaaa045","bonusEndBlock()":"1aed6553","deposit(uint256,uint256)":"e2bbb158","dev(address)":"8d88a90e","devaddr()":"d49e77cd","emergencyWithdraw(uint256)":"5312ea8e","getMultiplier(uint256,uint256)":"8dbb1e3a","massUpdatePools()":"630b5ba1","migrate(uint256)":"454b0608","migrator()":"7cd07e47","owner()":"8da5cb5b","pendingSushi(uint256,address)":"195426ec","poolInfo(uint256)":"1526fe27","poolLength()":"081e3eda","renounceOwnership()":"715018a6","set(uint256,uint256,bool)":"64482f79","setMigrator(address)":"23cf3118","startBlock()":"48cd4cb1","sushi()":"0a087903","sushiPerBlock()":"b0bcf42a","totalAllocPoint()":"17caf6f1","transferOwnership(address)":"f2fde38b","updatePool(uint256)":"51eb05a6","userInfo(uint256,address)":"93f1a40b","withdraw(uint256,uint256)":"441a3e70"},"id":0}